:020000040800F2
:100000000000022049720008C5710008C77100088D
:10001000C9710008CB710008CD7100080000000014
:10002000000000000000000000000000CF71000888
:10003000D171000800000000D3710008D5710008DC
:100040009972000899720008997200089972000864
:100050009972000899720008997200089972000854
:100060009972000899720008997200089972000844
:100070009972000899720008997200089972000834
:100080009972000899720008997200089972000824
:100090009972000899720008997200089972000814
:1000A0009972000899720008997200089972000804
:1000B00099720008997200089972000899720008F4
:1000C000997200089972000899720008E571000899
:1000D00099720008F171000899720008997200087D
:1000E00099720008997200089972000899720008C4
:1000F00099720008997200089972000899720008B4
:1001000099720008997200089972000899720008A3
:100110009972000899720008997200089972000893
:100120009972000899720008997200089972000883
:100130009972000800000000000000009972000899
:100140009972000899720008997200089972000863
:100150009972000899720008997200089972000853
:100160009972000899720008997200089972000843
:100170009972000899720008997200080000000046
:10018000000000009972000800000000000000005C
:100190009972000800000000000000009972000839
:1001A000000000000000000000000000997200083C
:1001B00099720008997200089972000899720008F3
:0401C0009972000828
:1001D00010B5054C237833B9044B13B10448AFF381
:1001E00000800123237010BD3C0A002000000000A5
:1001F0009C7D000808B5034B1BB103490348AFF3CE
:10020000008008BD00000000400A00209C7D00081E
:10021000034613F8012B002AFBD1181A0138704746
:1002200001F0FF01102A2BDB10F0070F08D010F8A7
:10023000013B013A8B422DD010F0070F42B3F6D1AB
:10024000F0B441EA012141EA014122F007047FF0C4
:1002500000070023F0E80256083C85EA010586EA1B
:10026000010685FA47F5A3FA87F586FA47F6A5FA57
:1002700087F68EB9EED1F0BC01F0FF0102F0070263
:1002800032B110F8013B013A83EA010313B1F8D10E
:100290000020704701387047002D06BF35460338EF
:1002A000073815F0010F07D1013015F4807F02BF28
:1002B000013015F4C03F0130F0BC0138704700BF79
:1002C00081F0004102E000BF83F0004330B54FEA07
:1002D00041044FEA430594EA050F08BF90EA020F74
:1002E0001FBF54EA000C55EA020C7FEA645C7FEA07
:1002F000655C00F0E2804FEA5454D4EB5555B8BF2A
:100300006D420CDD2C4480EA020281EA030382EA9A
:10031000000083EA010180EA020281EA0303362D2C
:1003200088BF30BD11F0004F4FEA01314FF4801CFF
:100330004CEA113102D0404261EB410113F0004F11
:100340004FEA03334CEA133302D0524263EB4303C8
:1003500094EA050F00F0A780A4F10104D5F1200E66
:100360000DDB02FA0EFC22FA05F2801841F10001C1
:1003700003FA0EF2801843FA05F359410EE0A5F195
:1003800020050EF1200E012A03FA0EFC28BF4CF0C6
:10039000020C43FA05F3C01851EBE37101F000457C
:1003A00007D54FF0000EDCF1000C7EEB00006EEB89
:1003B0000101B1F5801F1BD3B1F5001F0CD3490813
:1003C0005FEA30004FEA3C0C04F101044FEA44526A
:1003D00012F5800F80F09A80BCF1004F08BF5FEAF1
:1003E000500C50F1000041EB045141EA050130BDD1
:1003F0005FEA4C0C404141EB010111F4801FA4F174
:100400000104E9D191F0000F04BF01460020B1FAC8
:1004100081F308BF2033A3F10B03B3F120020CDA00
:100420000C3208DD02F1140CC2F10C0201FA0CF0DE
:1004300021FA02F10CE002F11402D8BFC2F1200C43
:1004400001FA02F120FA0CFCDCBF41EA0C019040F9
:10045000E41AA2BF01EB0451294330BD6FEA040442
:100460001F3C1CDA0C340EDC04F11404C4F120022D
:1004700020FA04F001FA02F340EA030021FA04F33F
:1004800045EA030130BDC4F10C04C4F1200220FA96
:1004900002F001FA04F340EA0300294630BD21FAD4
:1004A00004F0294630BD94F0000F83F4801306BF9A
:1004B00081F480110134013D4EE77FEA645C18BF8E
:1004C0007FEA655C29D094EA050F08BF90EA020F25
:1004D00005D054EA000C04BF1946104630BD91EA1D
:1004E000030F1EBF0021002030BD5FEA545C05D120
:1004F0004000494128BF41F0004130BD14F580045F
:100500003CBF01F5801130BD01F0004545F0FE41D2
:1005100041F470014FF0000030BD7FEA645C1ABF07
:10052000194610467FEA655C1CBF0B46024650EA3E
:10053000013406BF52EA033591EA030F41F400216A
:1005400030BD00BF90F0000F04BF0021704730B5F0
:100550004FF4806404F132044FF000054FF00001C5
:1005600050E700BF90F0000F04BF0021704730B586
:100570004FF4806404F1320410F0004548BF40425B
:100580004FF000013EE700BF42004FEAE2014FEAB0
:1005900031014FEA02701FBF12F07F4393F07F4F8B
:1005A00081F06051704792F0000F14BF93F07F4FBD
:1005B000704730B54FF4607401F0004521F0004100
:1005C00020E700BF50EA010208BF704730B54FF086
:1005D00000050AE050EA010208BF704730B511F08B
:1005E000004502D5404261EB41014FF4806404F1C3
:1005F00032045FEA915C3FF4DCAE4FF003025FEA45
:10060000DC0C18BF03325FEADC0C18BF033202EBCC
:10061000DC02C2F1200300FA03FC20FA02F001FA26
:1006200003FE40EA0E0021FA02F11444C1E600BFC5
:1006300070B54FF0FF0C4CF4E06C1CEA11541DBF78
:100640001CEA135594EA0C0F95EA0C0F00F0DEF843
:100650002C4481EA030621EA4C5123EA4C5350EA28
:10066000013518BF52EA033541F4801143F4801379
:1006700038D0A0FB02CE4FF00005E1FB02E506F00A
:100680000042E0FB03E54FF00006E1FB03569CF05F
:10069000000F18BF4EF0010EA4F1FF04B6F5007F65
:1006A00064F5407404D25FEA4E0E6D4146EB0606D7
:1006B00042EAC62141EA55514FEAC52040EA5E5060
:1006C0004FEACE2EB4F1FD0C88BFBCF5E06F1ED80A
:1006D000BEF1004F08BF5FEA500E50F1000041EB41
:1006E000045170BD06F0004646EA010140EA0200EE
:1006F00081EA0301B4EB5C04C2BFD4EB0C0541EA10
:10070000045170BD41F480114FF0000E013C00F324
:10071000AB8014F1360FDEBF002001F0004170BD48
:10072000C4F10004203C35DA0C341BDC04F1140461
:10073000C4F1200500FA05F320FA04F001FA05F2ED
:1007400040EA020001F0004221F0004110EBD370BA
:1007500021FA04F642EB06015EEA430E08BF20EAE6
:10076000D37070BDC4F10C04C4F1200500FA04F389
:1007700020FA05F001FA04F240EA020001F000411B
:1007800010EBD37041F100015EEA430E08BF20EA8E
:10079000D37070BDC4F1200500FA05F24EEA020ED6
:1007A00020FA04F301FA05F243EA020321FA04F005
:1007B00001F0004121FA04F220EA020000EBD370BC
:1007C0005EEA430E08BF20EAD37070BD94F0000FBC
:1007D0000FD101F00046400041EB010111F4801FF0
:1007E00008BF013CF7D041EA060195F0000F18BFA1
:1007F000704703F00046520043EB030313F4801FDD
:1008000008BF013DF7D043EA0603704794EA0C0F96
:100810000CEA135518BF95EA0C0F0CD050EA4106AC
:1008200018BF52EA4306D1D181EA030101F0004129
:100830004FF0000070BD50EA410606BF1046194651
:1008400052EA430619D094EA0C0F02D150EA01365D
:1008500013D195EA0C0F05D152EA03361CBF10469E
:1008600019460AD181EA030101F0004141F0FE413D
:1008700041F470014FF0000070BD41F0FE4141F4C1
:10088000780170BD70B54FF0FF0C4CF4E06C1CEAC1
:1008900011541DBF1CEA135594EA0C0F95EA0C0F76
:1008A00000F0A7F8A4EB050481EA030E52EA033531
:1008B0004FEA013100F088804FEA03334FF0805552
:1008C00045EA131343EA12634FEA022245EA11157F
:1008D00045EA10654FEA00260EF000419D4208BF30
:1008E000964244F1FD0404F5407402D25B084FEADD
:1008F0003202B61A65EB03055B084FEA32024FF489
:1009000080104FF4002CB6EB020E75EB030E22BFE5
:10091000B61A754640EA0C005B084FEA3202B6EBA5
:10092000020E75EB030E22BFB61A754640EA5C0054
:100930005B084FEA3202B6EB020E75EB030E22BFE4
:10094000B61A754640EA9C005B084FEA3202B6EBE5
:10095000020E75EB030E22BFB61A754640EADC00A4
:1009600055EA060E18D04FEA051545EA16754FEA06
:1009700006164FEAC30343EA52734FEAC2025FEA24
:100980001C1CC0D111F4801F0BD141EA00014FF0B3
:1009900000004FF0004CB6E711F4801F04BF014384
:1009A0000020B4F1FD0C88BFBCF5E06F3FF6AFAEA0
:1009B000B5EB030C04BFB6EB020C5FEA500C50F130
:1009C000000041EB045170BD0EF0004E4EEA1131B3
:1009D00014EB5C04C2BFD4EB0C0541EA045170BDBA
:1009E00041F480114FF0000E013C90E645EA060EFE
:1009F0008DE60CEA135594EA0C0F08BF95EA0C0F2C
:100A00003FF43BAF94EA0C0F0AD150EA01347FF473
:100A100034AF95EA0C0F7FF425AF104619462CE74A
:100A200095EA0C0F06D152EA03353FF4FDAE1046AD
:100A3000194622E750EA410618BF52EA43067FF4FE
:100A4000C5AE50EA41047FF40DAF52EA43057FF48E
:100A5000EBAE12E74FF0FF3C06E000BF4FF0010C99
:100A600002E000BF4FF0010C4DF804CD4FEA410CFD
:100A70007FEA6C5C4FEA430C18BF7FEA6C5C1BD0CA
:100A800001B050EA410C0CBF52EA430C91EA030F4B
:100A900002BF90EA020F0020704710F1000F91EAA8
:100AA000030F58BF994208BF90422CBFD8176FEA76
:100AB000E37040F0010070474FEA410C7FEA6C5C44
:100AC00002D150EA013C07D14FEA430C7FEA6C5C4B
:100AD000D6D152EA033CD3D05DF8040B704700BF77
:100AE0008446104662468C461946634600E000BFC5
:100AF00001B5FFF7B7FF002848BF10F1000F01BD97
:100B00004DF808EDFFF7F4FF0CBF012000205DF861
:100B100008FB00BF4DF808EDFFF7EAFF34BF0120E6
:100B200000205DF808FB00BF4DF808EDFFF7E0FF7F
:100B300094BF012000205DF808FB00BF4DF808EDD0
:100B4000FFF7CEFF94BF012000205DF808FB00BF37
:100B50004DF808EDFFF7C4FF34BF012000205DF819
:100B600008FB00BF4FEA410C7FEA6C5C02D150EAFF
:100B7000013C0AD14FEA430C7FEA6C5C02D152EA95
:100B8000033C02D14FF0000070474FF00100704766
:100B90004FEA410212F5001215D211D56FF47873A5
:100BA000B3EB625212D94FEAC12343F0004343EA48
:100BB000505311F0004F23FA02F018BF4042704723
:100BC0004FF00000704750EA013005D111F00040AD
:100BD00008BF6FF0004070474FF00000704700BF43
:100BE0004A0011D212F5001211D20DD56FF47873AC
:100BF000B3EB62520ED44FEAC12343F0004343EA01
:100C0000505323FA02F070474FF00000704750EA4B
:100C1000013002D14FF0FF3070474FF000007047B5
:100C20004FEA4102B2F1E04324BFB3F5001CDCF10E
:100C3000FE5C0DD901F0004C4FEAC0024CEA507046
:100C4000B2F1004F40EB830008BF20F00100704775
:100C500011F0804F21D113F13872BCBF01F0004078
:100C6000704741F480114FEA5252C2F11802C2F1AA
:100C7000200C10FA0CF320FA02F018BF40F001002B
:100C80004FEAC1234FEAD32303FA0CFC40EA0C00DD
:100C900023FA02F34FEA4303CCE77FEA625307D11A
:100CA00050EA01331EBF4FF0FE4040F44000704751
:100CB00001F0004040F0FE4040F40000704700BFEB
:100CC00053B94AB9002908BF00281CBF4FF0FF31B3
:100CD0004FF0FF3000F07AB9ADF1080C6DE904CEA9
:100CE00000F006F8DDF804E0DDE9022304B0704707
:100CF0002DE9F0478C460D460446089E002B51D145
:100D00008A4217466DD9B2FA82FEBEF1000F0BD0AF
:100D1000CEF1200C01FA0EF520FA0CFC02FA0EF7C7
:100D20004CEA050C00FA0EF44FEA174A250CBCFBFE
:100D3000FAF81FFA87F90AFB18CC45EA0C4508FBBC
:100D400009F3AB420AD9ED1908F1FF3280F0238193
:100D5000AB4240F22081A8F102083D44ED1AA4B252
:100D6000B5FBFAF00AFB105544EA054400FB09F90B
:100D7000A14509D9E41900F1FF3380F00A81A145AA
:100D800040F2078102383C44A4EB090440EA0840E1
:100D90000021002E61D024FA0EF400233460736029
:100DA000BDE8F0878B4207D9002E54D0002186E899
:100DB00021000846BDE8F087B3FA83F1002940F02E
:100DC0008E80AB4202D3824200F2FA80841A65EB35
:100DD00003050120AC46002E3FD086E81010BDE888
:100DE000F08712B90127B7FBF2F7B7FA87FEBEF119
:100DF000000F34D1EB1B3A0C1FFA87FC0121B3FB27
:100E0000F2F8250C02FB183345EA03450CFB08F306
:100E1000AB4207D9ED1908F1FF3002D2AB4200F224
:100E2000D1808046ED1AA3B2B5FBF2F002FB10555B
:100E300043EA05440CFB00FCA44507D9E41900F182
:100E4000FF3302D2A44500F2B8801846A4EB0C048C
:100E500040EA08409DE731463046BDE8F087CEF1D4
:100E6000200405FA0EF307FA0EF720FA04F83A0CFC
:100E700025FA04F448EA0308B4FBF2F14FEA1845F6
:100E800002FB11441FFA87FC45EA044501FB0CF301
:100E9000AB4200FA0EF409D9ED1901F1FF3080F0F0
:100EA0008A80AB4240F2878002393D44EB1A1FFA38
:100EB00088F5B3FBF2F002FB103345EA034500FB73
:100EC0000CF3AB4207D9ED1900F1FF386FD2AB42FA
:100ED0006DD902383D44EB1A40EA01418FE7C1F178
:100EE000200722FA07F88B4005FA01F448EA0303C9
:100EF00020FA07FE4FEA134CFD404EEA040EB5FB04
:100F0000FCF94FEA1E440CFB19551FFA83F844EA1A
:100F1000054509FB08F4AC4202FA01F200FA01FAB5
:100F200008D9ED1809F1FF3043D2AC4241D9A9F1FB
:100F300002091D442D1B1FFA8EFEB5FBFCF00CFBB5
:100F400010554EEA054400FB08F8A04507D9E418FF
:100F500000F1FF3529D2A04527D902381C4440EAC8
:100F60000940A4EB0804A0FB02894C45C6464D4647
:100F700015D312D056B1BAEB0E0364EB050404FA94
:100F800007F7CB401F43CC40376074600021BDE8B9
:100F9000F0871846F8E69046E0E6C245EAD2B8EB9C
:100FA000020E69EB03050138E4E72846D7E740461F
:100FB00091E78146BEE7014678E702383C4445E7C1
:100FC000084608E7A8F102083D442BE7704700BF38
:100FD00038B50E4A0E4B054618784FF47A73B3FBBA
:100FE000F0F31068B0FBF3F000F008FB044658B9CA
:100FF0000F2D09D8024629464FF0FF3000F0BEFA07
:10100000044B20461D6038BD012038BDD0090020AA
:10101000000000200400002008B50B4B1A6842F4C1
:1010200000721A601A6842F480621A601A6842F408
:1010300080721A60032000F08FFA0020FFF7C8FFCB
:1010400005F06CFF002008BD003C0240034A044B41
:1010500011681B780B441360704700BF140B00200D
:1010600000000020014B1868704700BF140B0020DF
:1010700038B50446FFF7F6FF631C1CBF054B1B7811
:10108000054618BFE418FFF7EDFF401B8442FAD86D
:1010900038BD00BF0000002010B50446002800F055
:1010A0009980036C23B9436480F83C3005F066FFF7
:1010B000236CDB0600F18C80236C23F4885323F02F
:1010C000020343F002032364434B5A6822F4403284
:1010D0005A605A6861680A435A60236821695A68ED
:1010E00022F480725A605A6842EA01225A605A68B1
:1010F000A16822F040725A605A680A435A609A689E
:10110000E16822F400629A609A680A439A6033495F
:10111000A26A8A4250D0996821F0706199609968FA
:101120000A439A609A68E16A22F040529A609A688B
:101130000A439A609A68A16922F002029A609A684A
:1011400042EA41029A60226A002A3DD05A68616AE6
:1011500042F400625A605A6822F460425A605A6847
:10116000013942EA41325A60DA6AE16922F47002D6
:10117000DA62DA6A013942EA0152DA629A68216B6C
:1011800022F400729A609A6842EA41229A609A6850
:10119000616922F480629A609A68002042EA8122A2
:1011A0009A606064236C23F0030343F0010323641B
:1011B000002384F83C3010BD9A6822F070629A6077
:1011C0009A6822F04052B4E75A6822F40062CAE7F3
:1011D0000120EDE7012010BD002301400100000FB8
:1011E00082B00023019390F83C30012B4ED00123B4
:1011F00080F83C3003689A68D10705D59A68D20711
:1012000014D4002002B070479A68214942F00102CC
:101210009A60204A1268B2FBF1F202EB420201929C
:10122000019A002AEAD0019A013AF8E7026C22F406
:10123000E06222F0010242F4807202645A685105B1
:1012400041BF026C22F4405242F480520264026CAC
:1012500012F480521CBF426C22F00602426400224B
:1012600080F83C206FF022021A600B4A5268D206C6
:1012700008D1986810F04050C3D19A6842F080427B
:101280009A60BFE7054A9342BBD1F2E70220B9E773
:1012900040420F00D00900200023014000200140FF
:1012A00037B513460022019290F83C20012A0446EB
:1012B00065D00568012280F83C20AA68D20705D5D0
:1012C000AA68D00715D4002003B030BDAA6842F048
:1012D0000102AA602B4A10682B4AB0FBF2F000EB27
:1012E00040000190019A002AEAD0019A013A019245
:1012F000F8E7206C20F4E06020F0010040F48070FA
:1013000020646A68520541BF206C20F4405040F4CC
:1013100080502064226CA06B12F480521CBF626C5F
:1013200022F006026264002284F83C20174AC2635D
:10133000174A0264174AC2646FF022022A606A6880
:1013400042F080626A60AA6842F48072AA600A462B
:1013500005F14C0100F00EFA0F4B5B6813F01F0F04
:10136000236808D1986810F04050ACD19A6842F0D8
:1013700080429A60A8E7094A9342A4D1F2E702208A
:10138000A2E700BFD009002040420F00A3130008CD
:10139000051400081114000800230140002001403A
:1013A0007047836B1A6C12F0500F10B524D11A6C71
:1013B00042F400721A641A68916811F0405F17D104
:1013C0009969A9B9D16A11F4700F02D091684905E1
:1013D0000ED4516821F0200151601A6C22F4807201
:1013E0001A641A6CD2045EBF1A6C42F001021A64CD
:1013F0001846FFF7D5FF10BD9B6BBDE81040DB6CB6
:101400001847704708B5806BFFF7FBFF08BD7047B2
:10141000806B08B540230364436C43F004034364CA
:10142000FFF7F5FF08BD0000F7B50023019390F822
:101430003C30012B6AD00D6804688A680123092DAD
:1014400080F83C30AEB22AD906EB4603E7681E3B73
:101450004FF0070E0EFA03FE27EA0E07E760E76873
:1014600002FA03F33B43E3604A68062A4FEA820329
:1014700025D81344676B591F1F238B4027EA0303AA
:101480006363626B06FA01F1114361632D4B9C4269
:1014900034D0002380F83C30184603B0F0BD2769F3
:1014A00005EB45034FF0070E0EFA03FE27EA0E0781
:1014B0002761276902FA03F33B432361D4E70C2A2F
:1014C0000ED81344216BA3F123021F23934021EA7A
:1014D00003032363236B06FA02F21A432263D5E760
:1014E0001344E16A413B1F229A4021EA0202E26270
:1014F000E26A06FA03F11143E162C7E7122D07D150
:10150000114A536843F480035360C2E70220C4E7E2
:101510000E4B9D4201D0112DBBD10B494A689D4213
:1015200042F400024A60B4D1094B0A4A1B68B3FB7B
:10153000F2F20A2353430193019B002BA9D0019B94
:10154000013BF8E700200140002301401200001099
:10155000D009002040420F00074AD36823F4E0631B
:101560001B041B0C43F0BF63000243F4003300F480
:10157000E0600343D360704700ED00E0174B30B5E7
:10158000DC68C4F30224C4F10703251D042B28BF23
:101590000423062D4FF0010505FA03F303F1FF3391
:1015A0008CBF033C00241940A14005FA04F4013C1F
:1015B0002240002842EA01024FEA0212AFBF00F1C6
:1015C000604000F00F00064BD2B2A5BF00F56140AD
:1015D000D2B21A5480F8002330BD00BF00ED00E005
:1015E00014ED00E04209012300F01F0003FA00F0AF
:1015F000014B43F82200704700E100E00138B0F1F0
:10160000807F0AD2064B074A5860F02182F82310E7
:101610000020072298601A6070470120704700BFC1
:1016200010E000E000ED00E0044B1A6804280CBF55
:1016300042F0040222F004021A60704710E000E059
:10164000704708B5FFF7FCFF08BD00000368DAB279
:1016500023F47F7323F003031821103AB2FBF1F255
:101660000449032A88BF0433895C8365C165806DA2
:10167000704700BFE77D000870B50446FFF7F2FC35
:101680000546002C71D0002384F8343022680223F0
:1016900084F83530136823F00103136021680B6868
:1016A000D8073CD40B68324D6268A0691D40A3681E
:1016B0001343E26813432269134362691343E269E7
:1016C00003431343226A1343626A042A43EA05036D
:1016D00001BF266BE56A35432B430B604B69042A37
:1016E00023F0070343EA02030BD1A26AE56A13431E
:1016F0003DB1F8B9012A2DD001D3022A01D1EA0166
:101700002BD44B612046FFF7A1FFE26D3F239340AE
:10171000836000200123606584F8353070BDFFF7D9
:10172000A1FC401B0528B9D920236365032084F858
:10173000350070BDB0F5005F13D1032AE1D801A0D8
:1017400050F822F05B170008FF1600085B1700082E
:1017500055170008B5F1C07FD3D140236365012040
:10176000E5E7022AF9D9032AC8E7012070BD00BFC6
:101770003F8010F070B590F83440012C36D0012431
:1017800080F8344090F83540866D012C4FF000050C
:101790004FF0020428D180F835400468456525687B
:1017A00025F48025256063608368402B0EBFA2600E
:1017B000A160E260C26D08BFE1603F239340B36067
:1017C000236843F016032360636943F08003636179
:1017D000036C1BB1236843F008032360236843F0C4
:1017E00001032360002070BD80F83450022070BDDA
:1017F00090F83530022B03D08023436501207047D9
:101800000268052380F83530136823F00103136064
:1018100000207047084910B50C6924F440740C612D
:101820000C6944F440740C610C6944F001040C61CF
:101830000260436010BD00BF003C0240074B1A69C4
:1018400022F440721A611A6942F400721A611A692C
:1018500042F001021A610160704700BF003C024083
:10186000074B1A6922F440721A611A6942F48072B5
:101870001A611A6942F001021A610180704700BFC3
:10188000003C0240204BDA68D00606D51F49CA69E1
:1018900042F01002CA611022DA60DA68910606D5B9
:1018A0001A49CA6942F00802CA612022DA60164B5E
:1018B000DA68520606D51549CA6942F00402CA61BF
:1018C0004022DA60DA68100606D51049CA6942F08B
:1018D0000202CA618022DA600B4BDA68D10507D5B3
:1018E0000A49CA6942F00102CA614FF48072DA60A3
:1018F000DA68920706D50549CA6942F02002CA6132
:101900000222DA60704700BF003C0240180B002042
:10191000064B1A69002ABFBF054A5A6002F1883295
:101920005A60BABF1869C00F00207047003C0240DF
:1019300023016745034A136943F000431361002004
:10194000704700BF003C0240F8B5124B124C002219
:101950000546DA61FFF786FB26460746E368DA03A9
:101960000CD4E368DB0744BF0123E360F06810F4A4
:10197000F97002D0FFF786FF0120F8BD691CEDD099
:101980000DB90320F8BDFFF76DFBC01B8542E5D202
:10199000F7E700BF180B0020003C02402DE9F041A2
:1019A000204D98462B7E012B07460E46144635D017
:1019B00001234CF250302B76FFF7C6FFB0B9CFB9F8
:1019C000194B1A6922F440721A611A691A611A696C
:1019D000E4B242F001021A6134704CF25030FFF769
:1019E000B3FF114A136923F00103136100232B761F
:1019F000BDE8F081012F04D1A1B23046FFF730FFDE
:101A0000EBE7022F04D121463046FFF717FFE4E74A
:101A1000224643463046FFF7FDFEDEE70220BDE8E2
:101A2000F08100BF180B0020003C0240074B1A69F0
:101A300022F440721A611A6942F004021A611A69AA
:101A400042F4803242EA002018617047003C0240B4
:101A500039B101291CD002290CBF4FF400714FF499
:101A600040710D4B1A6922F440721A611A691143D0
:101A700019611A6922F0F8021A611A6942F0020229
:101A800042EAC00018611A6942F480321A61704754
:101A90004FF48071E5E700BF003C0240144B1A6828
:101AA00091050FD51A6822F400721A601A6842F480
:101AB00000621A601A6822F400621A601A6842F41E
:101AC00000721A600A4B1A6852050FD51A6822F480
:101AD00080621A601A6842F480521A601A6822F40E
:101AE00080521A601A6842F480621A60704700BF20
:101AF000003C02402DE9F843234E337E012B04467F
:101B000088463FD001234CF250303376FFF71CFF5C
:101B10000546A8B94FF0FF33C8F800302368012B01
:101B200013D1207CFFF782FF4CF25030FFF70CFFFF
:101B3000164A136923F0040305461361FFF7AEFF4D
:101B4000002333762846BDE8F883A768DFF83C9089
:101B5000E368A26813449F42F0D2217C3846FFF725
:101B600077FF4CF25030FFF7EFFED9F8103023F03A
:101B7000FA03C9F8103018B1C8F800700546DDE75F
:101B80000137E5E70225DDE7180B0020003C0240A5
:101B90002DE9F04F85B00B68DFF8A081654ADFF8CA
:101BA000A091019300234FF0010E019C0EFA03FE59
:101BB0000EEA0406B64540F0AA804C6824F01007EF
:101BC000022F16D14FEAD30A00EB8A0A03F0070B63
:101BD000DAF820504FEA8B0B4FF00F0C0CFA0BFC8D
:101BE00025EA0C0C0D6905FA0BF545EA0C05CAF857
:101BF00020504FEA430A0325D0F800B005FA0AF551
:101C0000ED4304F0030C0BEA050B0CFA0AFC013F50
:101C10004CEA0B0C012FC0F800C011D8876807EA06
:101C2000050BCF6807FA0AFC4CEA0B078760476888
:101C300027EA0E0EC4F300179F4047EA0E074760DD
:101C4000C7683D408F6807FA0AF73D43C560E50065
:101C50005DD54FF0000BCDF80CB0D8F84470364D80
:101C600047F48047C8F84470D8F8447007F48047B8
:101C70000397039F23F0030707F1804707F59C377D
:101C800003F0030CD7F808A04FEA8C0C4FF00F0EAE
:101C90000EFA0CFEA8422AEA0E0E3FD005F580652A
:101CA000A8423DD005F58065A8423BD005F580658A
:101CB000A84239D005F58065A84237D0484537D0CD
:101CC00005F50065A84214BF0725062505FA0CF5A1
:101CD00045EA0E05BD601568F74314F4803F0CBF5C
:101CE0003D4035431560556814F4003F0CBF3D403E
:101CF00035435560956814F4801F0CBF3D40354353
:101D00009560D568A40254BF3D403543D56001338A
:101D1000102B7FF448AF05B0BDE8F08F5D46D5E7E6
:101D20000125D3E70225D1E70325CFE70425CDE739
:101D30000525CBE7003C014000000240003802408E
:101D4000001402400AB1816170470904FBE70000FA
:101D500037B500230193184B184C1A6C42F080528F
:101D60001A641B6C03F080530193019B144B0122F6
:101D70001A60FFF777F905466368DA030BD5114B54
:101D80000E4C01221A60FFF76DF9054663689B034C
:101D90000AD5002006E0FFF765F9401BB0F57A7F11
:101DA000EAD9032003B030BDFFF75CF9401BB0F562
:101DB0007A7FEBD9F5E700BF0038024000700040A1
:101DC00040000E4244000E422DE9F0410D4604460B
:101DD00010B90120BDE8F081444B1A6802F00F02EF
:101DE0008A4228D321688F072DD4C80740D43F4B9F
:101DF0001A6802F00F02954266D3226851076CD42C
:101E0000130707D53A4A2169936823F4604343EAEC
:101E1000C103936000F098F8354B364A9B68C3F3D2
:101E20000313D35CD840344B18600020FFF7D0F880
:101E30000020BDE8F081CAB21A701B6803F00F03DE
:101E40009942C6D1CEE72A4B11F0040F1EBF9A6803
:101E500042F4E0529A600E0742BF9A6842F4604230
:101E60009A609A68A06822F0F00202439A60BCE788
:101E700062681F4B012A1DD11B6813F4003FA8D0D4
:101E80001B4EB36823F003031343B360FFF7EAF874
:101E900041F288380746B368626803F00C03B3EB7D
:101EA000820FA4D0FFF7DEF8C01B4045F3D9032012
:101EB000BDE8F081911E01291B6802D813F0007F54
:101EC000DDE713F0020FDAE7EAB21A701B6803F0DD
:101ED0000F039D427FF47DAF8FE70549E0688B6873
:101EE00023F4E05303438B608AE700BF003C0240C9
:101EF0000038024029830008D0090020014B1868EF
:101F0000704700BFD0090020044B054A9B68C3F30B
:101F10008223D35C034A1068D840704700380240DF
:101F200039830008D0090020044B054A9B68C3F39D
:101F30004233D35C034A1068D840704700380240EF
:101F400039830008D0090020204908B58B6803F0C8
:101F50000C03082B07D00C2B20D01D4A1D48042B46
:101F600018BF104608BD4A684B68496813F48003DF
:101F700014BF18481648C1F3881118BF002302F097
:101F80003F02A1FB0001FEF79BFE104B5B68C3F311
:101F9000014301335B00B0FBF3F008BD4A684B68B6
:101FA000496813F4800314BF0A480948C1F3881133
:101FB00018BF002302F03F02A1FB0001FEF780FEE4
:101FC000024B5B68C3F30273E5E700BF00380240D1
:101FD0000024F40040787D0170B54F4CFFF742F8C3
:101FE000236843F0010305462360236898076DD5F5
:101FF000236843F080032360FFF734F80023A360D5
:10200000454C054641F28836A36813F00C0F64D1A5
:10201000FFF728F8236823F4502323603E4C05463D
:10202000236899035FD4FFF71DF8236823F08073BA
:102030002360394C054623689A015AD4FFF712F8F9
:10204000236823F080632360334C054623681B011B
:1020500055D4FFF707F8236823F0805323602E4CF4
:102060000546206810F000504FD12C4B6360C4F837
:10207000843003F16043C4F88830E368284A23F4CD
:10208000F853E360E36823F40053E360E36823F468
:102090008043E360E36843F41F03E360E36843F4D1
:1020A0000013E360E36843F48003E360636F23F0AD
:1020B00001036367636F43F080736367194B1A60B2
:1020C000FEF786FF003018BF012070BDFEF7CAFF83
:1020D000401B022889D9032070BDFEF7C3FF401BB7
:1020E000B04291D9F7E7FEF7BDFF401B642897D9AE
:1020F000F1E7FEF7B7FF401B02289CD9EBE7FEF79C
:10210000B1FF401B0228A1D9E5E7FEF7ABFF401B5A
:102110000228A6D9DFE700BF0038024010300024B3
:102120000024F400D009002003682DE9F341DF0703
:10213000044610D423689E0767D423681A0700F169
:10214000B28023685B0700F1D080A269002A40F0CA
:10215000398100201EE0974B9A6802F00C02042A95
:1021600010D09A6802F00C02082A02D15B685D0266
:1021700008D4904B9A6802F00C020C2A0DD15A68D0
:1021800050020AD58B4B1B689903D3D56368002B8B
:10219000D0D1012002B0BDE8F0816268B2F5803F85
:1021A00011D11A6842F480321A60FEF75BFF814D4C
:1021B00006462B689A03BDD4FEF754FF801B6428A3
:1021C000F7D90320E6E77B4DB2F5A02F2B6807D1A6
:1021D00043F480232B602B6843F480332B60E4E7C7
:1021E00023F480332B602B6823F480232B60002A98
:1021F000DBD1FEF737FF06462B689B039AD5FEF727
:1022000031FF801B6428F7D9DBE76A4B9A6812F02C
:102210000C0F10D09A6802F00C02082A02D15B68F9
:102220005F0208D5634A936803F00C030C2B11D1AD
:1022300053685E020ED45F4B1A68950702D5E268B8
:10224000012AA6D11A68216922F0F80242EAC102E5
:102250001A6072E7E268584BB2B101221A60FEF7C9
:1022600001FF544D06462B68980707D52B68226955
:1022700023F0F80343EAC2032B605EE7FEF7F2FEA9
:10228000801B0228EFD99CE71A60FEF7EBFE494D50
:1022900006462B6899077FF550AFFEF7E3FE801BDB
:1022A0000228F6D98DE76269444B7AB101221A609F
:1022B000FEF7D8FE3F4D06466B6F9F073FF541AFD7
:1022C000FEF7D0FE801B0228F6D97AE71A60FEF7E7
:1022D000C9FE384D06466B6F98077FF532AFFEF7A3
:1022E000C1FE801B0228F6D96BE7324B1A6C12F044
:1022F000805228D101921A6C42F080521A641B6CF1
:1023000003F080530193019B01262D4D2B68D905C5
:102310001BD5A368274D012B27D12B6F43F0010359
:102320002B67FEF79FFE234D074641F288382B6F3F
:102330009B0739D5002E3FF408AF1E4A136C23F0DB
:102340008053136401E70026DFE72B6843F48073B2
:102350002B60FEF787FE07462B68DA05D9D4FEF717
:1023600081FEC01B0228F7D92BE7052B04D12B6F68
:1023700043F004032B67D0E72A6F22F001022A679B
:102380002A6F22F004022A67002BCAD1FEF76AFEE8
:1023900041F2883807462B6F9807CBD5FEF762FECF
:1023A000C01B4045F7D90CE7FEF75CFEC01B40455B
:1023B000BDD906E70038024000004742800E474280
:1023C00000700040234DAB6803F00C03082B3FF472
:1023D000E0AE214E0023022A33602DD1FEF742FEEB
:1023E00007462B68990121D4226AE3691343626A84
:1023F00043EA8213E26A43EA0263226B43EA02730E
:10240000A26A144C5208013A43EA02436B6001236A
:102410003360FEF727FE054623689A013FF599AE23
:10242000FEF720FE401B0228F6D9CAE6FEF71AFE88
:10243000C01B0228D5D9C4E6FEF714FE04462B685B
:102440009B017FF586AEFEF70DFE001B0228F6D934
:10245000B7E600BF00380240600047422DE9F04176
:10246000069E0446884617461D462268936838EA49
:1024700003030CBF012300239F4202D10020BDE8CB
:10248000F0816B1CF2D055BB23685A6822F0E00241
:102490005A606268B2F5827F0AD1A268B2F5004F35
:1024A00002D0B2F5806F03D11A6822F040021A60A0
:1024B000A26AB2F5005F09D11A6822F40052120430
:1024C000120C1A601A6842F400521A60012384F850
:1024D0005130002384F850300320BDE8F081FEF72E
:1024E000C1FD801B8542C0D8CEE713B50B460092D4
:1024F000802100220446FFF7B1FF20B1636D43F055
:1025000020036365032002B010BD10B50446002807
:1025100036D00023836290F8513003F0FF021BB9DC
:1025200080F8502004F074FD2168A068A26902239D
:1025300084F851300B6823F040030B606368034359
:10254000E06803432069034360690343E069034390
:10255000206A0343A06A034302F4007003430B6044
:10256000120C636A02F004021A434A60CB6923F436
:102570000063CB6100200123606584F8513010BDF9
:10258000012010BD2DE9FF411E4690F85030012B6F
:1025900004460D46904600F09C80012380F85030A0
:1025A000FEF760FD074694F85100C0B2012840F0E4
:1025B0008E80002D4ED0B8F1000F4BD0032384F84D
:1025C000513000236365A363A4F83680A387E387B3
:1025D00063642364A3682563B3F5004F2368A4F8FC
:1025E000348002BF1A6842F480421A601A685206A8
:1025F0005EBF1A6842F040021A60E268B2F5006FEE
:10260000626838D11AB1E28E92B2012A06D135F849
:10261000022BDA60E38E013B9BB2E386E38E9BB232
:1026200093B900973346012202212046FFF716FF97
:1026300078B93A4631462046FFF757FF002838D090
:1026400020236365012005E023689A689007DED4A3
:102650004EB90320012384F85130002384F8503010
:1026600004B0BDE8F081711CD8D0FEF7FBFCC01BA4
:102670008642D3D8EDE71AB1E28E92B2012A06D192
:1026800015F8012B1A73E38E013B9BB2E386E38EB0
:102690009BB2002BC5D023689A689207F0D4002E15
:1026A000D7D0731CF3D0FEF7DDFCC01B8642EED8FA
:1026B000CFE7A36833B903932368DA6803929B6872
:1026C0000393039B606D003018BF0120C2E7022016
:1026D000C0E70220C4E72DE9F043994690F8503056
:1026E00085B0012B04460D4616460C9F00F0ED8088
:1026F000012380F85030FEF7B5FC94F85130616842
:10270000DBB2012B80460AD0B1F5827F40F0DB803E
:10271000A268002A40F0D780042B40F0D480002D1E
:102720004ED0002E4CD0B9F1000F49D094F8513062
:10273000A663012B04BF052384F851300023636591
:10274000236463642368A4F83E90A4F836901A6862
:10275000A4F83C90500658BF1A68256358BF42F051
:102760004002A4F8349058BF1A60E268B2F5006FD6
:102770005DD119B1E28E92B2012A06D135F8022B51
:10278000DA60E38E013B9BB2E3864FF00109E38EF2
:102790009BB2BBB9E38F9BB2A3B9CDF800803B4697
:1027A000012202212046FFF759FE002835D142467A
:1027B00039462046FFF799FE002879D0202363652B
:1027C00001202BE0B9F1000F0FD0E38E9BB263B173
:1027D00023689A68910708D535F8022BDA60E38EF2
:1027E000013B9BB2E3864FF00009E38F9BB263B1DC
:1027F00023689A68D20708D5DB6826F8023BE38F86
:10280000013B9BB2E3874FF00109781CBFD0FEF774
:1028100029FCA0EB08008742B9D80320012384F8E3
:102820005130002384F8503005B0BDE8F08319B171
:10283000E28E92B2012A06D115F8012B1A73E38EAB
:10284000013B9BB2E3864FF00109E38E9BB21BB9BB
:10285000E38F9BB2002BA0D0B9F1000F0FD0E38E15
:102860009BB263B123689A68910708D52A781A73D6
:10287000E38E013B9BB2E38601354FF00009E38F05
:102880009BB263B123689A68D20708D5DB683370BE
:10289000E38F013B9BB2E38701364FF001097B1CBC
:1028A000D3D0FEF7DFFBA0EB08008742CDD8B4E71A
:1028B000A368002BB2D123680390DA6803929B6867
:1028C0000393039BAAE70220A8E70220ACE72DE9C7
:1028D000F3411E464368B3F5827F04460D46904699
:1028E0000CD1836853B9042380F851301346009605
:1028F0000A46FFF7F0FE02B0BDE8F08194F85030D0
:10290000012B00F08180012384F85030FEF7AAFBF0
:10291000074694F85100C0B2012873D1002D58D059
:10292000B8F1000F55D0042384F8513000236365BB
:102930002363A4F83E80A386E38623646364A368CC
:10294000A563B3F5004F2368A4F83C8002BF1A6862
:1029500022F480421A601A6852065EBF1A6842F07A
:1029600040021A60E368CBB1E38F9BB2D3B1236816
:102970009A68D2073CD5DB6825F8023BE38F013B20
:102980009BB2E387F0E723689A68D0071FD51B7BCB
:1029900005F8013BE38F013B9BB2E387E38F9BB2DA
:1029A000002BF0D16368B3F5827F0BD1A368B3F538
:1029B000004F02D0B3F5806F04D12268136823F072
:1029C00040031360606D003018BF012001E03EB984
:1029D0000320012384F85130002384F850308AE723
:1029E000711CDBD0FEF73EFBC01B8642D6D8EFE75A
:1029F000002EEDD0731CB7D0FEF734FBC01B86420F
:102A0000B2D8E5E70220E4E7022074E7704700004F
:102A1000036830B559689A6802F04105012D85B008
:102A2000044605D14D0603D5036C984705B030BD6B
:102A3000950704D5080602D5636C2046F5E712F425
:102A4000B07FF3D08D06F1D550060FD594F8510024
:102A500003284FF0000541D0606D40F00400606530
:102A60000095D868009098680090009895060CD55D
:102A7000606D40F00100606500200290986802904F
:102A8000186820F0400018600298D00508D5626DE3
:102A900042F008026265002203929A680392039A48
:102AA000626D002AC2D05A6822F0E0025A60012208
:102AB00084F851208A0718D05A68E06C22F003028B
:102AC0005A6018B10B4B0365FEF792FEA06C00280C
:102AD000ACD0084B0365FEF78BFEA7E70195DA68DB
:102AE00001929B680193019BA0E72046FFF78EFFB0
:102AF0009CE700BFF92A000808B5806B0023C38754
:102B0000C386FFF783FF08BD0368DA6822F490727A
:102B1000DA605A6922F001025A61202380F83A30C3
:102B2000704700002DE9F0470668C2683369C16943
:102B300023F4405313433361044683680069F26809
:102B40000343606922F41642034322F00C020B4354
:102B50001343F3607369A26923F440731343B1F51F
:102B6000004F73617A4B7CD19E4203D003F58063A2
:102B70009E4244D1FFF7D8F9192505FB00F36068A0
:102B80004FF064094000B3FBF0F3B3FBF9F34FEAF5
:102B90000318FFF7C9F9636868435B00B0FBF3F7FC
:102BA000FFF7C2F9636868435B00B0FBF3F3B3FB64
:102BB000F9F309FB1373DB003233B3FBF9F35B006A
:102BC00003F4F877FFF7B0F9626868435200B0FB8E
:102BD000F2FAFFF7A9F9636868435B00B0FBF3F30F
:102BE000B3FBF9F309FB13A3DB003233B3FBF9F3B7
:102BF00003F0070343443B44B360BDE8F087FFF7AD
:102C000083F9192505FB00F360684FF06409400063
:102C1000B3FBF0F3B3FBF9F34FEA0318FFF774F9D2
:102C2000636868435B00B0FBF3F7FFF76DF9636817
:102C300068435B00B0FBF3F3B3FBF9F309FB1373D9
:102C4000DB003233B3FBF9F35B0003F4F877FFF7F3
:102C50005BF9626868435200B0FBF2FAFFF754F97F
:102C6000B9E79E4202D03B4B9E4240D1FFF75CF950
:102C7000676819254FF0640905FB00F3BF00B3FB3B
:102C8000F7F3B3FBF9F31F01FFF74EF963686843ED
:102C90009B00B0FBF3F8FFF747F9636868439B00BC
:102CA000B0FBF3F3B3FBF9F309FB13831B013233DE
:102CB000B3FBF9F303F0F008FFF736F962686843F5
:102CC0009200B0FBF2FAFFF72FF9636868439B00AC
:102CD000B0FBF3F3B3FBF9F309FB13A31B0132338E
:102CE000B3FBF9F303F00F0343EA080383E7FFF7AD
:102CF0000BF9676819254FF0640905FB00F3BF0065
:102D0000B3FBF7F3B3FBF9F31F01FFF7FDF86368BB
:102D100068439B00B0FBF3F8FFF7F6F8636868437D
:102D20009B00B0FBF3F3B3FBF9F309FB13831B0127
:102D30003233B3FBF9F303F0F008FFF7E5F862680C
:102D400068439200B0FBF2FAFFF7DEF8BDE700BF80
:102D50000010014000140140F8B504460E46174625
:102D60001D4621680B6836EA030301D10020F8BD37
:102D70006B1CF7D095B92368DA6822F4D072DA6058
:102D80005A6922F001025A61202384F8393084F80C
:102D90003A30002384F838300320F8BDFEF762F99A
:102DA000C01B8542DDD2E6E710B5044640B390F87B
:102DB000393003F0FF021BB980F8382004F0A2F983
:102DC0002268242384F83930D36823F40053D36075
:102DD0002046FFF7A7FE23681A6922F490421A6181
:102DE0005A6922F02A025A61DA6842F40052DA6023
:102DF00000202023E06384F8393084F83A3010BD95
:102E0000012010BD2DE9F0411F4690F83930202BEC
:102E100004460D4690464FD100294AD0002A48D09A
:102E200090F83830012B47D0012380F83830002348
:102E3000C363212380F83930FEF714F9A4F8248005
:102E40000646A4F82680E38C9BB26BB93B4632461B
:102E500040212046FFF780FFB0B9202384F83930A5
:102E600084F83800BDE8F081E38C013B9BB2E38439
:102E7000A368B3F5805F32463B464FF080012046A1
:102E80000ED1FFF769FF10B10320BDE8F0812B8858
:102E90002268C3F308035360236943B90235D2E7BC
:102EA000FFF75AFF0028EFD123682A785A600135CE
:102EB000C9E70120BDE8F0810220BDE8F08190F86B
:102EC0003A30202B1CD1C9B1C2B190F83830012B57
:102ED00016D0C285828500232222C36380F83A205F
:102EE00002688162516980F8383041F00101516116
:102EF000D16841F49071D160184670470120704745
:102F000002207047704790F83A30222B10B532D12A
:102F1000836801690268B3F5805F836A1FD15268D4
:102F2000C9B9C2F3080223F8022B8362C48D013CA5
:102F3000A4B2C4856CB90368DA6822F49072DA60CE
:102F40005A6922F001025A61202380F83A3003F0D6
:102F5000BBFF002010BDD2B223F8012BE5E721B959
:102F6000591C526881621A70E0E75268591C8162EC
:102F700002F07F02F7E7022010BD704703681A686D
:102F8000D96870B5160704465D6907D196065AD50B
:102F90008D0658D5BDE87040FFF7B5BF15F00105A7
:102FA00002D111F4907F4ED0D30705D5CE0542BF94
:102FB000E36B43F00103E363500704D51DB1E36BFA
:102FC00043F00203E363930704D51DB1E36B43F0C1
:102FD0000403E363160704D51DB1E36B43F0080354
:102FE000E363E36B002B66D0950604D5880602D513
:102FF0002046FFF788FF23685D69E26B11072046D2
:1030000002D415F040051AD0FFF77EFD23685A69F7
:10301000520610D55A69606B22F040025A6150B1D5
:10302000254B0365FEF7E4FB002844D0606BBDE848
:103030007040036D18472046FFF79FFF70BDFFF7F4
:103040009CFFE56370BD160627D50D0625D594F8BF
:103050003920212A2FD1A268B2F5805F226A17D1C8
:103060001188C1F308015960216979B902322262DD
:10307000E28C013A92B2E284EAB9DA6822F0800284
:10308000DA60DA6842F04002DA6070BD0132EEE7E1
:10309000511C216212785A60EAE750060BD54A06A5
:1030A00009D5DA6822F04002DA60202384F839304A
:1030B0002046FFF727FF70BDBD30000808B5806BC4
:1030C0000023C385C384FFF758FF08BDF0B58D4DBD
:1030D0008D4E002387B004462B5400F065FD4FF061
:1030E000FF33132201A93046FFF7F1FB0028F6D188
:1030F000FE2000F059FD9DF804209DF8053083491D
:103100008348520102F47E6242EAD3020A809B00A5
:103110009DF8061003F01C0343EA91130F2B038064
:103120000BDD285D7B4E0130285530780130307042
:103130002001794E3352794B1A529DF80730784A64
:103140000901C9B21943774B19809DF80830DE0890
:103150000F2E16800DD92A5D6E4801322A5502784D
:10316000013202706C486D4A270138443A44468067
:1031700051809DF809206C491B0203F480731343AE
:103180006A4A13809DF80A2002F01F020F2A0A8063
:103190000DD9295D5F480131295501780131017050
:1031A0005D49200101448A805C4A024493809DF875
:1031B0000B209DF80C305E495E48920102F47C625F
:1031C00042EA93020A80DB009DF80D1003F0180319
:1031D00043EA51130F2B03800DDD285D4D4E013066
:1031E00028553078013030704B4826013044C38078
:1031F0004A4B3344DA809DF80F309DF80E2042EAA6
:103200000121DA0942EA41024B4912B20A80C3F3B2
:1032100084034A490F2B0B800DD9295D3D480131AC
:1032200029550178013101703B49200101440B818E
:103230003A4B03441A819DF811309DF81020404804
:10324000190941EA02113F4A5B0011809DF81220E2
:1032500003F01E0343EAD2130F2B03800DDD285D1C
:103260002C4E013028553078013030702A48260124
:1032700030444381294B334459819DF813303249FE
:103280003248D20102F4786242EA53020A801B01FA
:103290009DF8141003F0100343EA11130F2B038061
:1032A0000DDD285D1B4E013028553078013030701F
:1032B0001948260130448381184B33449A819DF884
:1032C00016309DF8152042EA81119A0942EA8102DE
:1032D0001F4912B20A80C3F344031E490F2B0B800F
:1032E0000DD9295D0B480131295501780131017053
:1032F000094924012144CB81084B1C44E28107B0D9
:10330000F0BD00BF830C0020EC0B00206E0A0020F3
:103310005E0A00206A190020C017002068140020EF
:10332000600A0020700A0020620A0020720A002051
:10333000740A0020640A0020760A0020660A002031
:10334000680A0020780A00207A0A00206A0A002011
:103350007C0A00206C0A002010B50024E0B2FFF7C0
:10336000B5FE01340520FDF783FE122CF6D1642052
:10337000BDE81040FDF77CBE2DE9F047954B13F8F2
:10338000008008EBC80608EB4606F3B213F0070608
:1033900018BF012606EBD306F31D23F0070300AF89
:1033A000ADEB030D05466C46B8F1000F3FD0C0B23F
:1033B00000F0FAFBDFF848921FFA86FA4FF0FF336D
:1033C000524621464846FFF782FA0028F6D1FE20F1
:1033D00008F1FF3800F0E8FBB8F1070F21D8DFE86B
:1033E00018F00800290056009B0011018A013702DD
:1033F000E6026178A3788A0002F01C0242EA931286
:10340000754B28011A80754B102A1A5209D123785E
:10341000734A5B0103F47E6343EAD1031380714A6C
:103420001352234600211A1B964200F38683BD46A1
:10343000BDE8F08794F801E0A178674B4FEA8E026F
:1034400002F01C0242EA91121A802801634B102AF2
:103450001A521A4609D12378614D5B0103F47E6349
:1034600043EADE032B805F4D2B5223795E4DDB0850
:103470000244102B2B805380D3D1E378594D09019E
:10348000C9B219432844594B41801980C9E794F8BF
:1034900001C094F802E0504B504A4FEA8C0101F011
:1034A0001C0141EA9E11280110291980115209D1ED
:1034B00023784B495B0103F47E6343EADC030B8012
:1034C00048490B522379484DD908298015181029ED
:1034D00069800DD1E1784FEA0E1E5FFA8EFE41EA57
:1034E0000E0E4249A1F800E03E490144A1F802E075
:1034F000A1793F4D01F01F010244102929809180DC
:103500008FD16279374D1B0203F480731343284433
:10351000384A8380138084E794F801C094F802E06D
:103520002D4B2E4A4FEA8C0101F01C0141EA9E11FD
:10353000280110291980115209D1237828495B01EB
:1035400003F47E6343EADC030B8026490B522379A4
:10355000254DD90829801518102969800DD1E178E9
:103560004FEA0E1E5FFA8EFE41EA0E0E1F49A1F8C9
:1035700000E01C490144A1F802E0A1791C4D01F0D2
:103580001F01298015181029A98009D161791B0212
:1035900003F480730B4317490B80124901448B805D
:1035A000257A637AE90001F0180141EA53110244D7
:1035B000114BD180102919807FF433AFE3790F4A82
:1035C0009B0103F47C6343EA9503064D1380284472
:1035D000C38026E7830C00205E0A0020C01700206D
:1035E0006E0A002068140020600A0020700A002083
:1035F000620A0020720A0020640A0020740A002077
:10360000EC0B002094F801C094F802E0824B83494F
:103610004FEA8C0202F01C0242EA9E122801102A94
:103620001A800A5209D123787D4A5B0103F47E6334
:1036300043EADC0313807B4A135223797A4DDA087C
:103640002A800D18102A6A800DD1E2784FEA0E1EEA
:103650005FFA8EFE42EA0E0E744AA2F800E0714A4A
:103660000244A2F802E0A279714D02F01F022A8002
:103670000D18102AAA8009D162791B0203F4807305
:1036800013436C4A1380674A02449380227A637A18
:10369000694D4FEAC20E0EF0180E4EEA531EA5F801
:1036A00000E00D18BEF1100FA5F806E00AD1E5798B
:1036B000AD0105F47C6545EA9205604A1580594ADA
:1036C0000244D580E27ADFF884E1C2F38405014444
:1036D000102DAEF800500D817FF4A3AEA17A514DAC
:1036E00041EA0321D30943EA4103554A28441BB266
:1036F0001380038195E694F801C094F802E0464BEC
:103700004FEA8C0101F01C0141EA9E111980280149
:10371000424B1029195209D122784149520102F431
:103720007E6242EADC020A803E490A5222793E4D1C
:10373000D10829801D18102969800DD1E1784FEA40
:103740000E1E5FFA8EFE41EA0E0E3849A1F800E027
:1037500034490144A1F802E0A179354D01F01F017F
:1037600029801D181029A98009D16179120202F45B
:1037700080720A432F490A802A4901448A80217AAB
:10378000627A2D4D4FEAC10E0EF0180E4EEA521E0F
:10379000A5F800E01D18BEF1100FA5F806E00AD14B
:1037A000E579AD0105F47C6545EA910523490D8075
:1037B0001C490144CD80E17ADFF890E0C1F3840533
:1037C000AEF8005003EB000E102DAEF808500BD1F0
:1037D000A57A45EA0225CA0942EA4502184912B209
:1037E0000A80104901440A81627BA57B510001F0E7
:1037F0001E0141EAD5110344124D59811029298037
:103800007FF40FAE217B13090F4A43EA01131380A3
:10381000044A1044438104E65E0A0020C0170020D9
:103820006E0A002068140020600A0020700A002040
:10383000620A0020720A0020640A0020740A002034
:10384000760A0020680A0020780A0020660A002014
:1038500094F801C094F802E0B94B4FEA8C0101F0F2
:103860001C0141EA9E1119802801B64B10291952FA
:1038700009D12278B449520102F47E6242EADC02A4
:103880000A80B2490A522279B14DD10829801D1807
:10389000102969800DD1E1784FEA0E1E5FFA8EFE85
:1038A00041EA0E0EAB49A1F800E0A8490144A1F895
:1038B00002E0A179A84D01F01F0129801D181029EF
:1038C000A98009D16179120202F480720A43A349E6
:1038D0000A809E4901448A80217A627AA04D4FEA8B
:1038E000C10E0EF0180E4EEA521EA5F800E01D188B
:1038F000BEF1100FA5F806E00AD1E579AD0105F497
:103900007C6545EA910597490D8090490144CD8039
:10391000E17ADFF868E2C1F38405AEF8005003EB0A
:10392000000E102DAEF808500BD1A57A45EA0225FD
:10393000CA0942EA45028C4912B20A80834901440D
:103940000A81617BA27BDFF838E24D0005F01E059D
:1039500045EAD215AEF8005003EB000E102DAEF87C
:103960000A5008D1257B090941EA05117F4D2980BC
:10397000764D05446981E57B94F810E0290101F05A
:10398000100141EA1E110344DFF8F8E19981102982
:10399000AEF800107FF445ADD30103F47863744AA8
:1039A00043EA55031380694A1044838139E594F84A
:1039B00001C094F802E0624B4FEA8C0101F01C0157
:1039C00041EA9E11198028015E4B1029195209D134
:1039D00022785D49520102F47E6242EADC020A80EA
:1039E0005A490A5222795A4DD10829801D181029A6
:1039F00069800DD1E1784FEA0E1E5FFA8EFE41EA32
:103A00000E0E5449A1F800E050490144A1F802E02B
:103A1000A179514D01F01F0129801D181029A9809D
:103A200009D16179120202F480720A434B490A807B
:103A3000464901448A80217A627A494D4FEAC10E93
:103A40000EF0180E4EEA521EA5F800E01D18BEF149
:103A5000100FA5F806E00AD1E579AD0105F47C6503
:103A600045EA91053F490D8038490144CD80E17A0E
:103A7000DFF808E1C1F38405AEF8005003EB000E57
:103A8000102DAEF808500BD1A57A45EA0225CA09D7
:103A900042EA4502344912B20A802C4901440A81A3
:103AA000627BA17BDFF8D8E0550005F01E0545EAF2
:103AB000D115AEF8005003EB000E102DAEF80A50F1
:103AC00008D1257B120942EA0512284D2A801F4D94
:103AD00005446A81E27B94F810E0DFF8A8C0150184
:103AE00005F0100545EA1E15ACF8005003EB000C7C
:103AF000102DACF80C5009D1C90101F4786141EAEC
:103B000052011B4A1180114A02449181A27C194D35
:103B1000C2F34401034410292980D9817FF481AC88
:103B2000637C43EA8E1E930943EA8E03124A1BB25A
:103B30001380064A1044C38173E403F8011B72E446
:103B40005E0A0020C01700206E0A002068140020C2
:103B5000600A0020700A0020620A0020720A002019
:103B6000640A0020740A0020760A0020780A0020E7
:103B70007A0A00206C0A00207C0A0020660A0020D5
:103B8000680A00206A0A002010B5064C0023237042
:103B90002078112800D910BDFFF7EEFB2378013300
:103BA000F5E700BF580A002008B5122851D8DFE811
:103BB00000F00A0E11141B1E2124282B2E32363938
:103BC0003C4044484C0000220121534808E00022B8
:103BD0000221FAE700220421F7E7002208214F48DA
:103BE000BDE80840FEF7AEB800221021F7E700223A
:103BF0001021EAE700222021E7E7002201214848BE
:103C0000EEE700220221FAE700220421F7E7002272
:103C10004FF48061F3E700224FF48051EFE7002278
:103C20004021D2E700228021CFE700224FF48071AB
:103C3000D5E700224FF48051D1E700224FF4807184
:103C4000DDE700224FF40071D9E700224FF4005164
:103C5000BBE701224FF400512F48FEF773F8012211
:103C600011462D48FEF76EF8012202212A48FEF780
:103C700069F8012204212848FEF764F8012208218E
:103C80002648FEF75FF8012210212448FEF75AF873
:103C9000012210212048FEF755F8012220211E485C
:103CA000FEF750F8012211461D48FEF74BF801229D
:103CB00002211B48FEF746F8012204211848FEF7AE
:103CC00041F801224FF480611548FEF73BF80122CC
:103CD0004FF480511248FEF735F8012240210E487A
:103CE000FEF730F8012280210B48FEF72BF8012265
:103CF0004FF480710948FEF725F801224FF48051F6
:103D00000648FEF71FF801224FF480710448FEF7C1
:103D100019F8012296E700BF0008024000000240A7
:103D20000004024013B5084C8DF804008DF805100E
:103D30004FF0FF33022201A92046FEF723FC0028A2
:103D4000F6D102B010BD00BF8815002010B50446A2
:103D5000FFF72AFF10216B20FFF7E4FFFE20FFF79B
:103D600023FF0520FDF784F92046FFF71DFF2021E2
:103D70006A20FFF7D7FFFE20FFF716FF0520FDF7AB
:103D800077F92046FFF710FF06211A20FFF7CAFF38
:103D9000FE20FFF709FF0520FDF76AF92046FFF72F
:103DA00003FF18211B20FFF7BDFFFE20FFF7FCFEDD
:103DB0000520FDF75DF92046FFF7F6FE00211C20E7
:103DC000FFF7B0FFFE20FFF7EFFE0520FDF750F9EB
:103DD0002046FFF7E9FE05211D20FFF7A3FFFE2087
:103DE000FFF7E2FE0520FDF743F92046FFF7DCFE72
:103DF0000D212420FFF796FFFE20FFF7D5FE0520BA
:103E0000FDF736F92046FFF7CFFE0C212520FFF7FE
:103E100089FFFE20FFF7C8FE0520FDF729F920469F
:103E2000FFF7C2FE0A212620FFF77CFFFE20FFF7E6
:103E3000BBFE0520FDF71CF92046FFF7B5FE162155
:103E40006320FFF76FFFFE20FFF7AEFE0520FDF7B2
:103E50000FF92046FFF7A8FE81212720FFF762FF18
:103E6000FE20FFF7A1FE0520FDF702F92046FFF72F
:103E70009BFE8C212520FFF755FFFE20FFF794FEC7
:103E80000520FDF7F5F82046FFF78EFE03212620DA
:103E9000FFF748FFFE20FFF787FE0520FDF7E8F853
:103EA0002046FFF781FE8D212720FFF73BFFFE20F4
:103EB000FFF77AFE0520FDF7DBF82046FFF774FEDA
:103EC00000216B20FFF72EFFFE20FFF76DFE19206B
:103ED000BDE81040FDF7CCB810B50446FFF764FE0E
:103EE00010216B20FFF71EFFFE20FFF75DFE0A206A
:103EF000FDF7BEF82046FFF757FE20216A20FFF7A6
:103F000011FFFE20FFF750FE0A20FDF7B1F8204612
:103F1000FFF74AFE06211A20FFF704FFFE20FFF7F5
:103F200043FE0A20FDF7A4F82046FFF73DFE1821C6
:103F30001B20FFF7F7FEFE20FFF736FE0A20FDF7F5
:103F400097F82046FFF730FE00211C20FFF7EAFE1D
:103F5000FE20FFF729FE0A20FDF78AF82046FFF72A
:103F600023FE05211D20FFF7DDFEFE20FFF71CFECE
:103F70000A20FDF77DF82046FFF716FE0D212420CC
:103F8000FFF7D0FEFE20FFF70FFE0A20FDF770F8C6
:103F90002046FFF709FE0C212520FFF7C3FEFE2077
:103FA000FFF702FE0A20FDF763F82046FFF7FCFD4D
:103FB0000A212620FFF7B6FEFE20FFF7F5FD0A20B6
:103FC000FDF756F82046FFF7EFFD1F216320FFF7AE
:103FD000A9FEFE20FFF7E8FD0A20FDF749F820467C
:103FE000FFF7E2FD81212720FFF79CFEFE20FFF76F
:103FF000DBFD0A20FDF73CF82046FFF7D5FD8C21BC
:104000002520FFF78FFEFE20FFF7CEFD0A20FDF7EB
:104010002FF82046FFF7C8FD10212620FFF782FE6B
:10402000FE20FFF7C1FD0A20FDF722F82046FFF72A
:10403000BBFD83212720FFF775FEFE20FFF7B4FDAF
:104040000A20FDF715F82046FFF7AEFD00216B2092
:10405000FFF768FEFE20FFF7A7FD1420BDE8104023
:10406000FDF706B837B502AC60F07F0004F8010D2B
:104070000C4D4FF0FF33012221462846FEF782FA0D
:104080000028F6D1074C4FF0FF3301220DF1060155
:104090002046FEF71CFC0028F5D19DF8060003B071
:1040A00030BD00BF88150020064BB3F8C830012B87
:1040B00002D0022B03D070470A2002F079BA6420A4
:1040C000FBE700BFC00E0020F8B5C4B2054620468D
:1040D000FFF76AFD3C20FFF7C5FF0646FE20FFF70D
:1040E00063FDFFF7E1FF2046FFF75EFD3B20FFF792
:1040F000B9FF0746FE20FFF757FDFFF7D5FF1D4B21
:10410000062068431D181F5420466E70FFF74CFDB3
:104110003E20FFF7A7FF0646FE20FFF745FDFFF70D
:10412000C3FF2046FFF740FD3D20FFF79BFF0746FA
:10413000FE20FFF739FDFFF7B7FF2046EE70AF70A6
:10414000FFF732FD4020FFF78DFF0646FE20FFF708
:104150002BFDFFF7A9FF2046FFF726FD3F20FFF7C5
:1041600081FF0446FE20FFF71FFDFFF79DFF2C7126
:104170006E71F8BD440E0020F8B5C4B20546204665
:10418000FFF712FD4420FFF76DFF0646FE20FFF704
:104190000BFDFFF789FF2046FFF706FD4320FFF7E1
:1041A00061FF0746FE20FFF7FFFCFFF77DFF1D4B79
:1041B000062068431D181F5420466E70FFF7F4FC5C
:1041C0004620FFF74FFF0646FE20FFF7EDFCFFF706
:1041D0006BFF2046FFF7E8FC4520FFF743FF07464B
:1041E000FE20FFF7E1FCFFF75FFF2046EE70AF70A7
:1041F000FFF7DAFC4820FFF735FF0646FE20FFF701
:10420000D3FCFFF751FF2046FFF7CEFC4720FFF716
:1042100029FF0446FE20FFF7C7FCFFF745FF2C717E
:104220006E71F8BDF81800202DE9F047E04F0A261E
:1042300006FB00722DED108B52898AB005460AB933
:10424000FFF742FF05FB06663E44738813B9284614
:10425000FFF792FFD74B9FEDD88A9FEDD8FA9FEDDD
:10426000D8DA06266E439C199B5D607840EA0320ED
:1042700000B2FCF777F9C6A3D3E90023FCF7D8F91D
:10428000FCF7CEFCA3780390E07840EA032000B26C
:10429000FCF768F9BEA3D3E90023FCF7C9F9FCF7E2
:1042A000BFFC23790490607940EA032000B2FCF758
:1042B00059F9B7A3D3E90023FCF7BAF9FCF7B0FC2E
:1042C000C04B05909C199B5D607840EA032000B2CA
:1042D000FCF748F9B0A3D3E90023FCF7A9F9FCF7F0
:1042E0009FFC09EE900AF0EEE97A17EE900AFCF7CF
:1042F0004BF9ABA3D3E90023FCF70CFCA37800280F
:10430000E07840EA032000B218BFF0EE489AFCF7CC
:1043100029F9A1A3D3E90023FCF78AF9FCF780FC73
:104320000BEE900AF0EEEB7A17EE900AFCF72CF900
:104330009BA3D3E90023FCF7EDFB237900286079E8
:10434000A14C40EA032000B218BFF0EE48BAFCF7D7
:1043500009F991A3D3E90023FCF76AF9FCF760FCA3
:104360000BEE100AF0EECB7A17EE900AFCF70CF980
:104370008BA3D3E90023FCF7CDFB2D01002804EB30
:10438000050A03A818BFB0EE48BA02F097FA9AEDF2
:10439000028ADAED00AA9AED019ADAED038ADDEDE0
:1043A00003CADDED04DA68EE6A7AB0EE007AE9EE6F
:1043B000287AF0EE6AEAD7EE87CA68EE287AB0EE7D
:1043C00049AAEAEE897AB0EE48EAD7EE87DA69EED2
:1043D000097A17EE900AFCF7D7F802460B46002040
:1043E0007A49FBF771FF68EE087A064617EE900AE5
:1043F0000F46FCF7C9F802460B4630463946FBF734
:1044000063FF02460B46FBF761FF064605980F4621
:10441000FCF7BAF802460B4630463946FBF754FF24
:1044200068EE2B7A6A4BE9EE297ACDE90001E8EED5
:104430008B7A93ED00CAF1EE677A17EE900AFCF7DB
:10444000A3F80022614BFCF7F3F869EE2D7A0646DB
:10445000E8EE6C7A0F4667EE8F7A17EE900AFCF75B
:1044600093F802460B4630463946FBF72DFFFCF722
:10447000D7FB07EE900A67EE8C7AE7EE8DEA6BEEDB
:10448000E87ACDED06EAE8EE0B7AEAEEA97A17EEC5
:10449000900AFCF779F800224C4BFCF7C9F86AEE59
:1044A000AD7A8046E8EEAC7A894617EE900AFCF7C2
:1044B0006BF879EE097A064617EE900A0F46FCF77C
:1044C00063F8DDE90023FCF7B3F802460B463046FB
:1044D0003946FBF7F9FE34A3D3E90023FCF7A8F82B
:1044E000FCF79EFBFCF750F802460B464046494657
:1044F000FBF7EAFEFCF794FB07EE900A67EE8C7A76
:10450000A7EE8DAA6BEE497A8DED07AAE8EEA97A9F
:1045100069EEC89AEAEEAB7AE9EE2B9A17EE900AAA
:10452000FCF732F80022294BFCF782F868EEAD7AEE
:104530000646EAEEEC7A0F46EAEE8B9A17EE900A00
:10454000FCF722F878EE087A804617EE900A894642
:10455000FCF71AF8DDE90023FCF76AF802460B467F
:1045600040464946FBF7B0FE0FA3D3E90023FCF712
:104570005FF8FCF755FBFCF707F802460B463046A0
:104580003946FBF7A1FEFCF74BFB23E0AFF30080BD
:1045900008F4E5AC1F00103FD1ACA9820A74213F9A
:1045A0006FF085C954C1D03F00000000006AF84098
:1045B000C00E0020440E0020000000000050C34741
:1045C00000007A44F81800206C1900200000E03F39
:1045D0003411002007EE900A67EE8C7A28EE2D8ABF
:1045E000A7EE8DEAA9EE2C8A19EE900A8DED08EA65
:1045F000FBF7CAFF0022274BFCF71AF868EE0F7A88
:10460000064617EE900A0F46FBF7BEFF02460B4622
:1046100030463946FBF758FEFCF702FB2AEE0AAAA1
:1046200007EE900AAEEEAEAA27EE8CCAAEEE0EAA48
:10463000ECEE0D8AA8EEA8AACDED098A1AEE100AB2
:10464000FBF7A2FF41EC100B03F088FA00220023D5
:1046500051EC100BFCF754FA58B1DAF8003006931D
:10466000DAF804300793DAF808300893DAF80C30F7
:104670000993254406A802F03DF9069B2B60079B91
:104680006B60089BAB60099BEB600AB0BDEC108BC4
:10469000BDE8F0870000E03FF8B5C4B2054620460B
:1046A000FFF782FA4920FFF7DDFC0646FE20FFF700
:1046B0007BFAFFF7F9FC2046FFF776FA4A20FFF76E
:1046C000D1FC0746FE20FFF76FFAFFF7EDFC1D4B0C
:1046D000062068431D181F5420466E70FFF764FAC9
:1046E0004B20FFF7BFFC0646FE20FFF75DFAFFF701
:1046F000DBFC2046FFF758FA4C20FFF7B3FC0746D7
:10470000FE20FFF751FAFFF7CFFC2046EE70AF70A6
:10471000FFF74AFA4D20FFF7A5FC0646FE20FFF7FB
:1047200043FAFFF7C1FC2046FFF73EFA4E20FFF7A1
:1047300099FC0446FE20FFF737FAFFF7B5FC2C7111
:104740006E71F8BD90100020F8B50446FFF72CFA02
:104750004920FFF787FC0746FE20FFF725FAFFF701
:10476000A3FC2046FFF720FA4A20FFF77BFC064611
:10477000FE20FFF719FAFFF797FC2046FFF714FA1F
:104780004B20FFF76FFC0546FE20FFF70DFAFFF701
:104790008BFC044A04EB4404131917555E709D709A
:1047A000F8BD00BFD40C00202DE9F047282294B0BA
:1047B0000021554802F0A1FD13220021534802F0C8
:1047C0009CFD0024E0B20134FFF786FB132CF9D1E5
:1047D0001420FCF74DFC0024E0B20134FFF7B4FFD5
:1047E000132CF9D14A4D00242C70E6B23046FFF765
:1047F000DBF90520FCF73CFC7520FFF733FC07468E
:10480000FE20FFF7D1F9712F01AF4AD12B78013388
:104810002B70012347F824300134132CE5D10023F9
:104820003A491A4657F82340D8B2012C08BF885499
:1048300003F1010304BF0132D2B2132BF2D10024E1
:10484000E6B23046FFF7B0F90520FCF711FC304620
:10485000FFF77CFA01340520FCF70AFC132CEFD19A
:104860003220FCF705FC4C2200212A482A4FDFF8B1
:10487000A48002F042FD294ADFF890C095F800E0DC
:1048800001210020116003460A240625C6B27645A0
:1048900018D303B1116013680133136014B0BDE87D
:1048A000F0873046FFF780F90520FCF7E1FB752023
:1048B000FFF7D8FB0646FE20FFF776F9712EA5D04C
:1048C0000023A7E710F80C6004FB067906FB044AF6
:1048D000B9F80A30BA446B43BAF802A0013305FBB9
:1048E0000A3AB9F80E3005FB03A3B9F810A0B9F8DD
:1048F000129003EB0A1303EB4903013348F8263007
:10490000194401300123C1E79C1A0020700C0020DB
:104910005A0A0020580D0020C00E0020D40B0020A1
:1049200070B5C5B204462846FFF73EF94220FFF7AE
:1049300099FB0646FE20FFF737F9FFF7B5FB28463F
:10494000FFF732F94120FFF78DFB0546FE20FFF708
:104950002BF9FFF7A9FB034800F8145000EB4400C3
:10496000467070BD450C002070B5164E0A2505FB3B
:10497000006304465B890BB1FFF7A6FB04FB0555FA
:1049800035446B8813B12046FFF7F6FB0A2303FB7F
:1049900004621D46D28912B12046FFF77DFE05FB59
:1049A00004631B8A13B12046FFF73EFC0A2303FB76
:1049B0000466738A23B12046BDE87040FFF7B0BF9C
:1049C00070BD00BFC00E00202DE9F041334C344EC5
:1049D000344D354F00232370237832789A4201D822
:1049E000BDE8F081E85CFFF7BFFF2178DFF8C8C0C1
:1049F00015F801E0062202FB0EF20CEB02001CF897
:104A0000028090F801C0282303FB01734CEA082CB4
:104A1000A3F802C090F8028090F803C04CEA082C7A
:104A2000A3F804C090F804C0407940EA0C20DFF8F5
:104A30008CC0D8800CEB02001CF8028090F801C0FA
:104A40004CEA082CA3F808C090F8028090F803C044
:104A50004CEA082CA3F80AC090F804C0407940EA58
:104A60000C2098811148024401315078D881D078C7
:104A700052795A820E4A188202EB0E12106858615F
:104A8000506898619068D861D2681A62094A2170AA
:104A900002EB4E0252789A849EE700BF590A00202A
:104AA0005A0A0020700C0020701100209010002085
:104AB0006C190020450C0020440E0020F81800203E
:104AC0002DE9F04FADF6DC1D00214FF41C620446C9
:104AD00006A8059102F011FC9E4B5A88FA2A9B46C3
:104AE00000F002829C49204602F043FC9B4920468C
:104AF00002F030FC9A49204602F02CFC99492046ED
:104B000002F028FC9849204602F024FC97492046F0
:104B100002F020FCBBF80220954905A802F0F6FB44
:104B200005A9204602F016FC924B9A799A46F2B1FA
:104B3000914F92493A78DFF8A492914E05A802F07D
:104B4000E5FB05A9204602F005FC8449204602F059
:104B500001FC8C49204602F0FDFBC8463B78A8EBDF
:104B6000090293424DDC7D49204602F0F3FB9AF89E
:104B70000730002B40F0A4809AF80830002B00F09A
:104B80007A818149204602F0E5FB8049204602F007
:104B9000E1FB9AF8CA30022B40F05B817C49204649
:104BA00002F0D8FB9AF8CA207A4B022A40F05681CC
:104BB0005A68794905A802F0A9FB05A9204602F028
:104BC000C9FB6649204602F0C5FB744905A802F0FE
:104BD000D0FB734B1B7BDB074CBF7249684905A8B0
:104BE00002F0B8FB05A9204602F0B4FB9BF8CA30DE
:104BF000032B00F24081DFE813F03A0171017301E9
:104C000075014546684918F8013B05A802F07EFB8E
:104C100005A9204602F09EFB644905A802F0A9FB05
:104C20002D780A2303FB05B35B89002B3ED05D4939
:104C300005A802F08FFB5E4905A802F08BFB0A2352
:104C400005FB03335B445B88002B31D0554905A835
:104C500002F080FB574905A802F07CFB0A2303FB06
:104C600005B3DB8933B34F4905A802F073FB524902
:104C700005A802F06FFB0A2303FB05B31B8ADBB117
:104C8000484905A802F066FB4C4905A802F062FB02
:104C90000A2303FB05B56B8A83B1424905A802F0DC
:104CA00059FB05A9204602F055FB57E73146BFE7FF
:104CB0003146CCE73146D7E73146E2E73146EDE70A
:104CC0003F4B40491A78404E404F05A802F01EFB6A
:104CD00005A9204602F03EFB2049204602F03AFB9F
:104CE0003B4905A802F045FB05A9204602F032FB2E
:104CF0000025725D394605A802F008FB013505A9BB
:104D0000204602F027FB112DF3D1727C3149DFF8E8
:104D1000B880DFF8489005A802F0F8FA05A9204607
:104D200002F018FB2C4905A802F023FB05A9204638
:104D300002F010FB0949204602F00CFB002515F893
:104D4000083005EB0807002B4AD10135122DF6D1AA
:104D500012E700BFC00E0020FE7F0008FC7F0008A5
:104D6000CF7F0008E27F0008FA7F0008FF7F00087D
:104D700040800008E01500205A0A00200D8000083D
:104D8000618000082180000823810008308100082C
:104D900040810008B0170020658100086981000883
:104DA000141100205B80000836800008498000084C
:104DB00066800008748000088580000893800008E1
:104DC0006A190020A2800008830C0020D18000080E
:104DD000C2800008BF800008D6800008700C002048
:104DE0002A46434905A802F091FA05A9204602F097
:104DF000B1FA4946204602F0ADFA3E4A03972B012C
:104E00009A1801923C4A134402930026039B1B7894
:104E10009E429ADA019B394933F91630771C3A469B
:104E200005A802F073FA05A9204602F093FA029B46
:104E3000334933F916303A4605A802F067FA05A956
:104E4000204602F087FA4946204602F083FA3E46A1
:104E5000DCE7012B0CBF2B492B49A0E6012A1BBF25
:104E60009BF8D4201B689A6843FA02F2A1E627490E
:104E7000204602F06FFA9AF80920254905A802F0A9
:104E800045FA05A9204602F065FA2249204602F0BB
:104E900061FA214B21491A7805A802F037FA05A9D1
:104EA000204602F057FA1B49204602F053FA1C4BE9
:104EB0001C49D3ED007AFCEEE77A05A817EE902A9C
:104EC00002F024FA05A9204602F044FA11492046CE
:104ED0000DF6DC1DBDE8F04F02F03CBA1249C7E701
:104EE0001249C5E71249C3E70DF6DC1DBDE8F08F96
:104EF000D880000868140020C0170020EB8000084C
:104F0000068100084E810008578100087981000859
:104F1000E3810008FC7F0008440C0020F6810008B3
:104F2000E01800201382000892810008A681000882
:104F3000BE8100082DE9F04F2DED048B0546A5B08C
:104F40008F49DFF880A28F4CDFF87CB28E4F02F0E1
:104F500010FA8E49284602F0FDF98D49284602F0E4
:104F6000F9F956469BF80030A6EB0A02934231DC71
:104F70008649284602F0EEF9864B1868FBF704FBD9
:104F800002460B460BA8844902F0C0F90BA928463B
:104F900002F0E0F97D49284602F0DCF97F4B8049B8
:104FA000D3ED007AFCEEE77A0BA817EE902A02F018
:104FB000ADF90BA9284602F0CDF97449284602F054
:104FC000C9F97249284625B0BDEC048BBDE8F04F05
:104FD00002F0C0B9337873490BA802F097F90BA916
:104FE000284602F0B7F9B04616F8012B6E4802EBDE
:104FF00042028118825C4B78897800910BA86B493A
:1050000002F084F90BA9284602F0A4F998F80030C0
:105010000A2202FB03735B8923B3B4F90490B4F949
:105020000280B4F90630089309FB09F008FB080078
:1050300003FB0300FBF796FA41EC100B02F08EFD28
:1050400051EC100BFBF7A4FD089B009300B20190FC
:1050500057494B4642460BA802F058F90BA928467F
:1050600002F078F916F8012C0A2302FB03333B44C3
:105070005B8873B1B4F90C100091B4F90A304D4952
:10508000B4F908200BA802F041F90BA9284602F058
:1050900061F916F8013C0A2202FB0373DB8973B144
:1050A000B4F912100091B4F910304349B4F90E204C
:1050B0000BA802F02BF90BA9284602F04BF916F8C1
:1050C000013C0A2202FB03731B8A002B45D094ED9E
:1050D000068AD4ED059AD4ED078A94ED089A68EE15
:1050E000087AE9EEA97AE8EEA87AE9EE097A17EEED
:1050F000900AFBF749FA41EC100B02F02FFD19EE74
:10510000900A8DED080BFBF73FFA9DED080B8046EA
:10511000894651EC100BFBF783FDFBF735FACDE91F
:10512000060119EE100AFBF72FFACDE9040118EE7B
:10513000900AFBF729FACDE9020118EE100AFBF7F5
:1051400023FA4246CDE900014B461C490BA802F068
:10515000DDF80BA9284602F0FDF816F8013C0A22FA
:1051600002FB03735B8A4BB11549B4F924200BA8E9
:1051700002F0CCF80BA9284602F0ECF82834F1E64E
:10518000FE7F00089C1A0020C00E0020FC7F000853
:105190003B8200083411002000830008E018002042
:1051A0001382000836800008D40C00204A820008D0
:1051B0006882000892820008A4820008B582000874
:1051C000ED820008700C00205A0A002010B5044639
:1051D00010B101281BD010BD0F48FFF771FC012250
:1051E0004FF480710D48FCF7ADFD0B48FBF710F84C
:1051F000094982B24FF496730948FDF703FE002275
:105200004FF480710548BDE81040FCF79BBD024893
:10521000FFF790FE2246E3E70A0000200008024064
:10522000040E00202DE9F743234E244CDFF898802C
:1052300002AD814605F8011D0F46304601224FF4AC
:105240008071FCF77FFD41464FF0FF33012220467D
:10525000FDF7D8FD41464FF0FF3301222046FDF710
:10526000D1FD4FF0FF33012215492046FDF7CAFD5D
:1052700029464FF0FF3301222046FDF7C3FD4FF0D2
:10528000FF333A46494620460E4CFDF7BBFD3046FB
:1052900000224FF48071FCF755FD204601224FF4A7
:1052A0000061FCF74FFD00224FF400612046FCF73F
:1052B00049FD03B0BDE8F08300080240040E002061
:1052C000E2150020000002407D7E000810B500239A
:1052D0000446221AD2B2914201D8184610BD14F8E1
:1052E000012B5340F5E707B502218DF804008DF836
:1052F000050001A8FFF796FF03B05DF804FB00006E
:1053000073B502AC00234FF4E8721C491C4844F802
:10531000043D01F0E7FFFCF7FBFA0120FBF7A8FED4
:10532000184D21462846FCF7E5FB0028F9D101205D
:10533000FBF79EFE144C114E144D04F1774303F518
:105340007A032146F25A01200023FCF727FB02349E
:105350000120FBF78DFEAC42EFD10120FBF788FE68
:10536000FCF7E8FA4FF4E8720549044801F0BAFF87
:105370006420FBF77DFE002002B070BDE015002028
:10538000C00E0020380B002000000608D0010608DF
:1053900038B50A4A0A4B0B4D0B495C885819023341
:1053A0008B428452F9D11388012B05D14FF4E87256
:1053B0000249064801F096FF38BD00BFE015002005
:1053C000FEFF05080200FAF7CE010608C00E002015
:1053D0005849012270B40B464A800A80144601F1F4
:1053E000BE0600224C818C81CA810A824A820A311F
:1053F0008E424FF001054FF00000F3D140F23941E9
:10540000C3F830114FF4E571C3F838114FF480310F
:10541000C3F83C114121C3F8401141F69911C3F87A
:10542000481144F6CC41C3F854110D2193F8D440EF
:10543000C3F85811042183F8611144F62061A1409A
:10544000C3F8D01003244FF07E51A3F8C820D871C0
:1054500018725872C3F83421C3F84421C3F84C21A0
:10546000C3F85021C3F85C2183F8CA0083F86201B5
:10547000C3F8CC20C3F87021C3F874219D7183F860
:10548000605183F8CB5083F8D440C3F8641183F89B
:10549000D540C3F8681183F8D640C3F86C11C3F83F
:1054A0007821C3F88021C3F87C2140F2DC52A3F8B4
:1054B00004214FF48062C3F88C21C3F89021C822E4
:1054C000A3F88421A3F88621642283F8942116226C
:1054D00083F896210022C3F89821C3F89C21C3F8D1
:1054E000A021C3F8A421C3F8A821C3F8AC214DF62C
:1054F000C022C3F8B0210A22C3F8B42142F21072CC
:10550000C3F8B821FF2283F8BE21002283F8880166
:1055100083F8BC0183F8BD0183F8955110469918B2
:105520000132112A81F8BF01F9D1002070BCFFF7C8
:10553000E7BE00BFE015002007B50023022101A847
:105540008DF804308DF80530FFF76CFE03B05DF880
:1055500004FB08B50020FFF7D3FE00B10120BDE831
:105560000840FFF7C0BE00002DE9F043ADF29C6D8E
:10557000A123AA4FAA4C8DF85830002501263A786D
:10558000EBB29A4212D8A74B1C68611EC9B216A88A
:10559000FFF79CFE16AB2344A1B203F8010C16A83A
:1055A000FFF740FE0DF29C6DBDE8F08304A83A229F
:1055B00002709D4A9D49D35C0A2202FB0342528934
:1055C00062B34FF0060CDFF874820A880CFB03FC10
:1055D00008EB0C0E18F80CC000F802C00DF1110C0D
:1055E0009EF801800CF802800DF1120C9EF80280EA
:1055F0000CF802800DF1130C9EF803800CF8028069
:105600000DF1140C9EF804800CF802809EF805C081
:105610000DF1150E0EF802C006320A800A2203FBB5
:1056200002222244528862B34FF0060CDFF8108247
:105630000A880CFB03FC08EB0C0E18F80CC000F8F1
:1056400002C00DF1110C9EF801800CF802800DF1E2
:10565000120C9EF802800CF802800DF1130C9EF8DB
:1056600003800CF802800DF1140C9EF804800CF8F5
:1056700002809EF805C00DF1150E0EF802C006322C
:105680000A800A2202FB0342D28962B34FF0060C61
:10569000DFF8B0810A880CFB03FC08EB0C0E18F84D
:1056A0000CC000F802C00DF1110C9EF801800CF83E
:1056B00002800DF1120C9EF802800CF802800DF1B0
:1056C000130C9EF803800CF802800DF1140C9EF868
:1056D00004800CF802809EF805C00DF1150E0EF83E
:1056E00002C006320A800A2202FB0342128A002A02
:1056F0005ED04F4A02EB0312D2F800E0CDF800E092
:10570000D2F804E0CDF804E0D2F808E0D2680392C1
:105710000A88CDF808E000210DF1040E00EB020C20
:105720001EF8018D0CF8018001310429F8D1111DFA
:1057300089B20DF111089DF807E000F801E00DF1C4
:10574000120C9DF806E008F801E09DF805E00CF861
:1057500001E00DF1130E9DF804900EF8019002F196
:10576000080189B29DF80B9000F801909DF80A900D
:1057700008F801909DF809900CF801909DF80890A8
:105780000EF8019002F10C0189B29DF80F9000F81B
:1057900001909DF80E9008F801909DF80D800CF88E
:1057A00001809DF80CC00EF801C0204910320A801B
:1057B0000A2202FB03421D49528A72B11D4AB1F806
:1057C00000E012F813C000F80EC002EB430292F89A
:1057D00001C00DF1110202F80EC0174A52F8233031
:1057E000C2184FF03A0E02F801EC01220A8016AA04
:1057F000002102EB060ECAB2934201F1010107DC5F
:105800001E4446220021B6B201F077FD0135B6E60E
:1058100010F802C00EF802C0EDE700BF5A0A0020DF
:10582000C00E0020D40B0020700C002008000020C7
:105830006C190020450C0020580D0020440E00205B
:10584000F81800209010002007B588238DF800304C
:105850000C4B9A69DB698DF8022011128DF801104A
:105860001A12052168468DF803208DF80430FFF7E1
:105870002DFD06218DF805006846FFF7D3FC03B027
:105880005DF804FB3811002007B5A6238DF8003021
:105890000C4BDA881B898DF80220110A8DF8011053
:1058A0001A0A052168468DF803208DF80430FFF7A9
:1058B0000DFD06218DF805006846FFF7B3FC03B027
:1058C0005DF804FBB60E00202DE9F04FD14BADF58D
:1058D000137D1B7803EB830303EB83035B009BB215
:1058E00003F2B14103F5976323F0070300AFADEB7B
:1058F000030D002305466C4618469AB2914203F107
:10590000010300F38481C44B07F1B40203F1180EC4
:1059100018685968164603C6083373453246F7D1EE
:105920001B88338000233B64FB64C7F843303B652E
:105930007B65BA4B2022FA63BA6403F1100E07F1BB
:10594000580218685968164603C60833734532462C
:10595000F7D1186830604FF020082622002107F5A3
:105960008C70C7F8148101F0C8FC1622002107F1E1
:10597000D400C7F8D08001F0C0FC1422002107F148
:105980008800C7F8848001F0B8FC1422002107F1D8
:10599000A000C7F89C8001F0B0FC1122002107F1A3
:1059A0007000C7F86C8001F0A8FC2322002107F1E9
:1059B000F000C7F8EC8001F0A0FC07F1B400FAF7A2
:1059C00027FC064607F15800FAF722FCB86207F1F7
:1059D0008400FAF71DFC786207F19C00FAF718FCC6
:1059E000386207F16C00FAF713FCF86107F1EC007C
:1059F000FAF70EFC7222B861002107F5EA70C7F8C9
:105A0000D08101F07AFC64230A22854907F5E87009
:105A100001F07CFC07F5E870FAF7FAFB814B78613E
:105A200007F5A07203F1300C186859689646AEE885
:105A30000300083363457246F6D11B788EF80030B8
:105A4000592200237849A7F8713107F5BA7001F09F
:105A500049FC07F5A070FAF7DBFB386107F5BA706F
:105A6000FAF7D6FB6B4BF8601B785A0891B2A3EBA0
:105A70004202002AC4BF0A4601327963C8BF7A6372
:105A80009AB23A637A6B796B0A321FFA82FBA222CE
:105A9000227003F10E020A446270002D40F051831F
:105AA0000222F6B2A2700122E2702371B5B2731D18
:105AB00007F1B402002D40F0C7802646A2464FF001
:105AC0000209A8464246594907F13C0001F01EFC74
:105AD00007F13C00FAF79CFBC3B2BB6002238AF8D3
